:020000040000FA
:030000000200D328
:03001300020CC319
:03001B00020CDEF6
:03002B0002066A60
:03003B00020CBFF5
:03007300020CC1BB
:03007B000206304A
:100083000213A500000080FB1200E2B90003020086
:10009300CDE490F10078EA79028002F0A3D8FCD98C
:1000A300FA90F2E9AA82AB839000E5786B7902803B
:1000B30015E493A3AC82AD838A828B83F0A3AA82D7
:1000C300AB838C828D83D8E9D9E7120802120086AC
:1000D30075D0007581BF7510007511F102008B7921
:1000E30001220D0A53696D706C6963695449202DAF
:1000F3002053696D706C65205065657220746F20A4
:1001030050656572204578616D706C652077697400
:100113006820554152540D0A000D0A5072657373DD
:10012300204D6173746572206F7220536C61766524
:1001330020746F20636F6E74696E75652E2E2E0D9D
:100143000A000D0A4C6F6F6B696E6720666F722031
:1001530061206C696E6B206173206D6173746572CD
:10016300000D0A4C696E6B2065737461626C697370
:1001730068656421000D0A4D6573736167652073BB
:10018300656E74000D0A41434B20726563656976A1
:100193006564000D0A43757272656E7420706F7723
:1001A3006572206C6576656C3A20000D0A4E4F200F
:1001B30041434B000D0A4C6F6F6B696E6720666F8E
:1001C300722061206C696E6B20617320736C6176A1
:1001D30065000D0A536F6D657468696E67207265FB
:1001E3006365697665640006060606060604070766
:1001F30007070707040000DFBE000720420BF10BCF
:10020300F13DF13DF1FFFFFFFF0E50C0FF00000085
:1002130001000000000000000000000000000000DA
:100223000000000000000000000000582F822EEBA9
:1002330028CC2F8D26012F7956341202010100009C
:10024300785678560000000034123412E0667010BD
:1002530008A3E066700A08A3E066700408A3E066DA
:1002630022E0F608A3E0F608A3E0F608A3E0F622EE
:10027300E6F008A3E6F008A3E6F008A3E6F022CA36
:10028300C0E0E6F0A308DAFAD0E0FA22CAC0E0E060
:10029300A3C582CCC582C583CDC583F0A3C582CC5B
:1002A300C582C583CDC583DAE6D0E0CA22C3E4980C
:1002B300F8E499F91202F18026C3E49AFAE49BFB6D
:1002C300E920E7E91202F1E498F8E499F922C3E49A
:1002D30098F8E499F91202F1E498F8E499F9C3E47F
:1002E3009AFAE49BFB22EB20E7CFE920E7E0B90091
:1002F30010BB0008E88AF084F8AAF022E4FBC8FAED
:1003030022EB70227B10C833C8C933C9335007C3EB
:100313009AC3DBF280069A50012ADBEAC833F4C899
:10032300C933F4C9FA2275F008E4C833C8C933C91C
:1003330033C99AC99B5004C92AC93BD5F0ECFBC801
:1003430033F4C8E4C9FA22600C08C6C313C618C63E
:1003530013C6D5E0F422251010AF08F5104002159E
:10036300118008F51040021511D2AF22C0D025101C
:1003730010AF08F510500205118008F51050020562
:1003830011D2AFD0D0222510F58210AF08F510405E
:100393000215118008F51040021511D2AF851183A3
:1003A300222510F582E43511F58322E4732510C567
:1003B30082C0E0E51134FFC583C0E0E510C3958238
:1003C30024F9F8E4C5A8858311858210C5A8E8CE71
:1003D300F0A3E520F0A37808E608F0A3DEFAEFF037
:1003E300A3E58124FBF8E608F0A3E608F0A30808D8
:1003F300E608F0A3E608F0A315811581D0E0FED04E
:10040300E0F815811581E8C0E0EEC0E02285118394
:10041300851082E0A3FEE0A3F5207808E0A3F608A8
:10042300DFFAE0A3FFE0A3C0E0E0A3C0E0E0A3C0E5
:10043300E0E0A3C0E0E4C5A8858210858311C5A8C8
:10044300D083D08222C8C0E0E9C0E0A9811919E5B0
:1004530083C7F58319E582C7F582EAC0E0EBC0E004
:10046300ECC0E0EDC0E0EEC0E0EFC0E0C0D0C0F013
:10047300C0207908E709C0E0D8FAE47374072FF8BD
:10048300D0E0F618DFFAD020D0F0D0D0D0E0FFD003
:10049300E0FED0E0FDD0E0FCD0E0FBD0E0FAD0E01D
:1004A300F9D0E0F8D083D082D0E032C0D02510C597
:1004B30082C0E0E51134FFC583C0E0E510C3958237
:1004C30024F310AF0885831185821080088583117A
:1004D300858210D2AFC8F0A3E9F0A3EAF0A3EBF052
:1004E300A37908E709F0A3D8FAECF0A3EDF0A3EEA3
:1004F300F0A3EFF0A3D0E0F0A3D0E0F0A3D0E0F0BE
:10050300A3E520F0A3E5F0F0A322851183851082F3
:10051300E0C0E0A3E0F9A3E0FAA3E0FBA37808E0DE
:10052300F608A3DFFAE0FCA3E0FDA3E0FEA3E0FFEF
:10053300A3E0C0E0A3E0C0E0A3E0F5D0A3E0F52092
:10054300A3E0A3F5F0E4C5A8858311858210C5A8AF
:10055300D082D083D0E0F8D0E03274028000C0E0D3
:10056300F404120389D0E01202822274028000CCC8
:10057300C0E0EDC0E0E510C39CCCAD1150011D10EF
:10058300AF068C108D1180068C108D11D2AF120224
:100593008FD0E0FDD0E0FC22D083D082C5F0E4937D
:1005A300A3C5F0C395F0F5F0E493A3C395F040051C
:1005B300E5F0048001E475F002A42582F582E5F0FC
:1005C3003583F583E493A3C0E0E493C0E022D083B2
:1005D300D082CCC0E0E493A360061205FB1470FA4A
:1005E300E493A3600612061A1470FAD0E0FCE493B5
:1005F300A3C0E0E493C0E022C0E0E493A3D39C5003
:1006030010E493A3C39C400AD0E0D0E0D0E00205FD
:10061300EEA3A3A3D0E022C0E0E493A36C7009D0BF
:10062300E0D0E0D0E00205EEA3A3D0E022C0E0C01A
:10063300D0C082C083C2AF7404658A70067401900F
:10064300F100F07408658A7006740290F100F07589
:100653008A00C2EB539AEF53BEFCE5BED2AFD08300
:10066300D082D0D0D0E032C0E0C2AFC2C775A10201
:10067300C2AD53BEFCE5BED2AFD0E03274F8120374
:10068300B07402696005740369705FE5D5FCE5D455
:10069300FDE5D6FE43D681E5D6740269700A74F38C
:1006A30090F3FCF074EE800874F390F3FCF074F5AF
:1006B30090F3FDF074F3F5D575D4FC75D601E5A57B
:1006C300FAE5A56A60FB43C702740449F5BE00005E
:1006D30000740355BE600875D701004387010053BA
:1006E300C7FD8CD58DD48ED680227401697016E532
:1006F300A5FAE5A56A60FB43BE010000007403553B
:10070300BE60098003E97004438701000216637425
:10071300F71203B089088A09ECFEEDFF7C007D0027
:100723007A04790312203C539AFEC2AF53BEFBE511
:10073300BEA2E550FA75C6C974C965C670FA43BE50
:1007430004740355092404F5A2E5A5FAE5A56A6036
:10075300FBE5A5FAE5A56A60FBEFF5A4EEF5A3C2F8
:10076300C775A110D2ADD2AFA90812067F53BEFB45
:10077300E5BEA2E650FA75C689748965C670FA1299
:1007830007F00212C974F81203B0E9FEEAFF7C0015
:100793007D007A04790312203C539AFED2AF53BEF4
:1007A300FBE5BEA2E550FA75C6C974C965C670FA01
:1007B30043BE04758A00C2EB538DF3E58DEF3333EB
:1007C30054FC458DF58D439A10D2AFEEF912067F96
:1007D30053BEFBE5BEA2E650FA75C689748965C6A9
:1007E30070FA1207F090F100E0F902166343BE04B9
:1007F3007C007D007A05790312203C439A01227420
:10080300FA12035943FE0143FE02C290C2918510BE
:100813008285118374AAF0A3E4F085108285118385
:10082300E07004C2AF80FE90F404740BF0A374F183
:10083300F090F406740BF0A374F1F090F408743D97
:10084300F0A374F1F090F40A743DF0A374F1F01284
:100853000D7CA2AFE492E0FAC2AF90F109E070021E
:10086300A3E07012740770027411600A90F10974A6
:1008730007F0A37411F0EAA2E092AF75B60EE5B4E7
:10088300A2E750FAE5BAF9E5BB90F101F075B60EAF
:10089300E5B4A2E750FAE5BAF8E5BBF0E8F5BCE940
:1008A300F5BC7E001215318E0874021203A4E58292
:1008B3002508F582E5833400F583E9F00EEEC39451
:1008C3000440E174021203A4AC82AD837A0079057B
:1008D30012203C90F2C7E070561211627A727B0CC0
:1008E300121731E970521214F21226768A828B8320
:1008F300E064FF6022E090DF05F07C008C82A88238
:10090300EA28F582EB1224A2C0E01214C7D0E0F06B
:100913000CECC3940440E590F413E064FF7004C24C
:10092300AF80FE740190F1BEF0740790DF03F074A2
:100933000190F2C7F012279B7C377D007AE97BF2A6
:10094300120FA87C297D007A207BF3120FA8D29086
:10095300D291C290C2917A037903120788E9FA749B
:10096300016A7005120976800874026A7003120B1B
:100973001080FE74F71203B074FA120359740290D4
:10098300F104F090F105F07C1F7D007A497BF312AE
:100993000FA88003120C0D7A027BF1122907E9706C
:1009A300F37C147D007A687BF3121033C290C291FA
:1009B30080497C097D007AB27BF3120FA8D2917C27
:1009C300F47D017A017902120712C29190F106E0D7
:1009D30004F064327025E4F0FCFD7A0979031220F7
:1009E3003CD290D2917CB87D0B7A01790212071226
:1009F300C290C2917A017903120788A2934013D25D
:100A030090D2917C887D137A017902120712C290E9
:100A1300C291120C56C0E074011203A4D0E0F07E20
:100A230000750800750900780812055D7C02EC1258
:100A330003A4AA82AB8390F102E0F9121F1D740292
:100A430012036F7C0F7D007A7C7BF3120FA87C006E
:100A53007D007A08790312203C7AFA7B0012163D56
:100A630090F103E070070EEEC3940340B47C007D65
:100A7300007A09790312203CE070030209B574027D
:100A83001203A4120C3A7C0FFD7A8B7BF3120FA88E
:100A9300120C2C6026E090F104F07C187D007A9A09
:100AA3007BF31210337C017D007A047BF112103347
:100AB3007C047DF17A0A790312203C90F102E0C0B4
:100AC300E074031203A4D0E0120C616019740412E1
:100AD30003A4120C22400690F105E014F090F105F6
:100AE300E0C39402501074041203A4120C185006AD
:100AF30090F105E004F0D2907CF47D017A01790253
:100B0300120712C290E490F106F00209FE74F71284
:100B130003B074FA120359740290F104F090F105D2
:100B2300F07C1E7D007ABB7BF3120FA8D290D2918A
:100B33008003120C0D7A027BF1121E5CE970F37CC8
:100B4300147D007A687BF3121033C290D2917C003B
:100B53007D007A08790312203C90F103E060FA7C6F
:100B6300007D007A09790312203C74021203A41257
:100B73000C3A120C2C6010E090F104F07C047DF12F
:100B83007A0A790312203C90F102E0C0E074031268
:100B930003A4D0E0120C61601974041203A4120CB4
:100BA30022400690F105E014F090F105E0C39402B1
:100BB300501074041203A4120C18500690F105E0AF
:100BC30004F0120C56C0E074011203A4D0E0F075D7
:100BD3000800750900780812055D7C02EC1203A475
:100BE300AA82AB8390F102E0F9121F1D7402120373
:100BF3006F7C007D007A08790312203CD2907AFA48
:100C03007B0012163DC290020B5C639001E590637A
:100C13009002E59022E0C394BAA2D265D03322E0D9
:100C2300C394D9A2D265D0332290F104E0FA85109F
:100C330082851183E06A22AC82AD8385108285119F
:100C430083AA82AB8390F102E0F9121FD3E490F1FF
:100C530003F02290F105121E5390F104E022F0AC50
:100C630082AD837A06790312203C90F105E0227469
:100C7300F81203B0E9601C740190F103F07C007D6D
:100C8300007A09790312203C7C157D007AD97BF325
:100C9300120FA8790002166353CBEFC2D843CB04DB
:100CA30075F00DEAA4F5CD74FC55CB4402F5CB43A6
:100CB300CB10A2D850FC53CBEFC2D822800E800CAD
:100CC300C0E07401120448120D42800AC0E07401AE
:100CD300120448120CE07F0102047F80E3C082C04B
:100CE3008374FF120359E5A8FAC2AF90F1071211FA
:100CF30001EAA2E792AFE87001E9603B85108285C3
:100D03001183AA82AB83888289831203AEE96008C8
:100D1300E5A8C2AFC2E98010E5A8FAC2AF539AFBB7
:100D230090F107E4F0A3F0EAA2E792AF8510828581
:100D33001183E0F5C18003539AFB74010215D6C0F9
:100D430082C083E5C1F9E5A8FCC2AF90F109122284
:100D5300B98A828B83ECA2E792AFE5827002E583C6
:100D630060141203AEE9700EE5A8FAC2AF90F10960
:100D7300E4F0A3120ECB0215D9C082C08374FE1215
:100D8300035990F107E4F0A3F090F109F0A3F043C5
:100D9300868043864053F1FE53F2F753F2FB43F34D
:100DA3000843F30453F5BF53F5DF53F5F753C4BFBB
:100DB30043C40853C4FB43C40253C4FE53C5DF7486
:100DC300E055C5440DF5C575C22243C48085108224
:100DD3008511837410F0A3740EF08510828511833E
:100DE300E024FFF8A3E034FFF9122AB6E87001E922
:100DF30070E8D2E9D2AA74020215D6EAC39CFAEBD0
:100E03009DFBC3122DEB5008EA2432FAEB3400FBAE
:100E13002274F11203B074FE1203598510828511F6
:100E230083EAF0A3EBF074111203A4121FCB741323
:100E33001203A4120F9674151203A4E0F50AA3E09B
:100E4300F50B122617E0FEA3E0FFEAA2E792AFEE4E
:100E5300FAEFFB12101EF8E4950DF9C3E8950AE9C1
:100E6300950BA2D265D033500479008055E50E244A
:100E730032F8E50F3400F9EE687002EF697004AEE2
:100E83000EAF0F850882850983E08E828F83F085FC
:100E93000882850983A38582088583098E828F83CF
:100EA300A3AE82AF83E50A24FFF50AE50B34FFF511
:100EB3000B122DE450B7122617EEF0A3EF120ECB50
:100EC3007901020F9E90F1B1F0EAA2E792AF22748A
:100ED300F11203B0ECFEEDFF740F1203A4E0F50C66
:100EE300A3E0F50D74111203A4120F9674131203E9
:100EF300A4E0F50AA3E0F50B7C007D00E5A8F50E60
:100F0300C2AF8E828F83121101E50EA2E792AFEA80
:100F1300687002EB696005122DE450067A007B00CD
:100F2300806FE50C2432F50EE50D3400F50FE8650E
:100F33000E7003E9650F7004A80CA90D88828983DC
:100F4300E0850882850983F088828983A3A882A922
:100F530083850882850983A3858208858309EC2418
:100F6300010CED3400FDC3EC950AED950BA2D2659F
:100F7300D0335008EA687002EB6970A6E5A8FAC29C
:100F8300AF8E828F83122ABCEAA2E792AFECFAED0E
:100F9300FB800DE0F508A3E0F50922740212036F4C
:100FA3007F0802041074F31203B08A0A8B0B8C08B7
:100FB3008D09EC7001ED605FEA7001EB6059E5A803
:100FC300C2AFA2E792AF1222BF1222B612101EFEC8
:100FD300E4950DFFC3EE9401EF122DEB40E0C3E562
:100FE300089EE5099F5004AE08AF09EEFCEFFDAA89
:100FF3000AAB0B121033E50A2EF50AE50B3FF50B8E
:10100300C3E5089EF508E5099FF509E5087002E5C3
:101013000970AB7901800279008010120DFE8A0CF1
:101023008B0D7431C3950C2212036F7F06020410DB
:1010330074F71203B0E5A8C2AFA2E792AF8C088D94
:1010430009780812055D8A088B09780812055D7511
:10105300083D7509F1780812055D1222BF7A087BF5
:10106300F4120E14740612036FE9602CA2AFE4921B
:10107300E0FAC2AF90F107E07002A3E07015749E2E
:1010830070027410600D90F107749EF0A37410F059
:10109300439A04EAA2E092AF0212C974F71203B0B2
:1010A300E5A8C2AFA2E792AF7508017509007808F9
:1010B30012055D8A088B09780812055D75083D7570
:1010C30009F1780812055D7C0A7DF41222B6120E2E
:1010D300D2740612036FA2AFE492E0FAC2AF90F4A7
:1010E3000812110190F40AE0687003A3E069600438
:1010F300790180027900EAA2E092AF0212C9E0F816
:10110300A3E0F92274F71203B074FF120359E985BF
:101113001082851183F0E5A8C2AFA2E792AF7508EC
:1011230001750900780812055D74021203A4858213
:1011330008858309780812055D75080B7509F17830
:101143000812055D90F4061222C27A047BF4120E93
:1011530014740612036F7901E912036F0212C97442
:10116300F71203B0750840750900780812055D127F
:1011730012CE12036F90DF36E054EF64016004C2B5
:10118300AF80FE90DF37E0C394035004C2AF80FE0C
:1011930053BEFBE5BEA2E650FA53C6BF43BE04747A
:1011A300F1F5D575D4B6743C90DF13F0741490DF69
:1011B30014F0743D90DF02F0740590DF04F074C006
:1011C30090DF2EF0740990DF25F0740690DF07F0AE
:1011D300E490DF08F0742190DF09F0746590DF0A72
:1011E300F0746A90DF0BF074F690DF0CF074839068
:1011F300DF0DF0741390DF0EF0742290DF0FF074A4
:10120300F890DF10F0741590DF11F0741690DF156D
:10121300F0746C90DF16F0740390DF17F074409055
:10122300DF18F0749190DF19F0745690DF1AF074A0
:101233001090DF1BF012151F741F90DF1FF07488CE
:1012430090DF23F0743190DF24F0740290F16FF09B
:101253001215B0E490DF06F0FEFF75E10275081485
:1012630075090590DF3CE05450701F7A407B0012F3
:1012730015FBE50824C0F508E50934FFF509C3E5C6
:10128300089401E509122DEB50D97A10EEC333FE11
:10129300EF33FF90DF3AE0A2E0E492E04EFE1AEA79
:1012A30070EA74804EF5BCEFF5BC1215B090F1B244
:1012B3007423F0A37401F090F1B47422F0A37424A6
:1012C300F0439A01D2AF7F020204107C007D007AC2
:1012D300707BF112310F74022274F61203B0EAFE2E
:1012E300EBFF890975080090F16FE064017004C297
:1012F300AF80FE1215B0EF90F1B6F0EE90F1B7F0BB
:1013030074DF90F1B8F074D990F1B9F0742012152C
:1013130082744190F1BDF0E509701143D60175E186
:1013230003E5E9A2E450FA53E9EF8061740165092A
:101333006004C2AF80FE750A0480191215B012183A
:10134300AF540F04FE90F1B41222B91215FB1EEE36
:1013530070F3150A43D60175E10290DF3BE0640D9B
:1013630070F87E147F0590DF3CE05450700512271F
:101373007F50F375E10390DF3BE0640D6008E5E91E
:10138300A2E450FA80A1E50A70B17508011215B004
:1013930090F16FE064037003121537A9087F03020D
:1013A3000410C0E074F11204AE90F16FE0640360C6
:1013B30004C2AF80FEE5E9A2E4502BE5E9A2E650C2
:1013C3002553E9EF53E9BF539BFCE59B1215B07519
:1013D300083E750900780812055D1212CE12036FDC
:1013E30012153702148153E9EF539BFCE59B7508F3
:1013F30002750900780812055D90F170E00424700D
:10140300FCE434F1FD7AAE7BF11230707402120306
:101413006FE0FA90F1AFE0A2E750528A0874012519
:1014230008F8E43400F9E8943FE99400C365D03345
:10143300503BEAC39408403590F1BEE0704590F10B
:10144300AEE0F91216E8E9F090F1AFE0C2E7F07907
:1014530001121BF5EA7001EB601390F170EA2402AC
:10146300FCEB3400FD744012028F1224CD75083E4C
:10147300780812055D1212CE12036F43D6017F0264
:1014830002050D7C007B007A008A82A882E8247121
:10149300F582E434F1F583E0FD1214C7E06D7001C9
:1014A3000CE8240CF582E434F4F583E06D70010B51
:1014B3000AEAC3940440D274046B608274046C70AF
:1014C300AC021441E82413F582E434F4F583227466
:1014D300F81203B090F16FE064016010E5A8FEC25A
:1014E300AF1215DE7401F0EEA2E792AF021663C0ED
:1014F30082C083E5C6A2E65004C2AF80FE90F16FBE
:10150300E06401701412151F740290F16FF075E11D
:101513000490DF3BE0640170F80215D974E990DFB1
:101523001CF0742A90DF1DF0E490DF1EF02243B418
:1015330004A9BC2274F71203B074DF90F1B6F074FF
:10154300D990F1B7F074F190F1B8F0747090F1B9EB
:10155300F07480121582741190F1BDF075D6817507
:10156300083E750900780812055D1212CE12036F4A
:1015730043D6011215CD75E1024391100212C990B1
:10158300F1BAF0744090F1BBF0741390F1BCF02207
:10159300C082C08390F16FE064017004C2AF80FE2B
:1015A300E0640360067403F01215378029C082C01B
:1015B300835391EF75E10490DF3BE0640170F875AC
:1015C300D68153D1FE1215CD800C539BFCE59B5362
:1015D300E9EF2212036FD083D08222C082C08390AE
:1015E300F16FE064017004C2AF80FEE06403700633
:1015F3001215B07402F080DE74F71203B08A088B00
:10160300097404780812034AAE08AF09EA7001EBC3
:101613006025E5A8F508C2AF7A107B00120C9BE5A4
:1016230008A2E792AFEEF8EFF974FF281E74FF39B2
:10163300FFE87001E970DB0212C974F81203B0EA23
:10164300FEEB800E7AF47B011215FBEE24FF1EEFF6
:1016530034FFFFEE7001EF70EB8005740112036F2E
:101663007F0102041074F61203B090F1B2120F96C8
:10167300E5A8FAC2AF7401120EC8800CE50824FF76
:10168300F508E50934FFF509E5087002E50960325C
:101693007E1F7F00E5A8F50AC2AF7A107B00120C0B
:1016A3009BE50AA2E792AF90F1B0E07012EEF8EF7B
:1016B300F974FF281E74FF39FFE87001E970D5E063
:1016C30060BAE5A8FAC2AFE490F1B0F0120EC80216
:1016D30013A0C082C08390F1B1E06006740190F161
:1016E300B0F00215D9C008C009E9FCC39480401AC0
:1016F300E9F879FF7A027B001202E9880889097404
:10170300B72508F874FF3509800CECC313F874B7D8
:1017130028F874FF3400F9C3E89480E994FFA2D257
:1017230065D03350027880E8F9D009D0082274F5E7
:101733001203B0EAFEEBFF75081A75090078081268
:10174300055D7C007D007A187BF41212D612036FBC
:10175300740290F418F0743D90F419F0742090F42E
:101763001AF0740190F41BF0750804780812055DF3
:101773007C007D007ACF7BF21212D612036F90F2B7
:10178300D7E07013780812055D7C007D007AD37B67
:10179300F21212D612036F90F2D7E0701978081282
:1017A300055D7C3E7DF47AD37BF21228E512036F4C
:1017B300740190F2D7F0E490F2CCF090F2CDEEF019
:1017C300A3EFF012267690F2C9EAF0A3EBF0121819
:1017D300AF90F2C8F060F7750884780812055D7C55
:1017E300007D007ABF7BF11212D612036F780812C4
:1017F300055D7C007D007A437BF21212D612036FE3
:101803001218AF90F2E8F090F4477808120264904F
:10181300F2D8780812027390F2DCEEF0A3EF1218FC
:10182300AE90F2DE1218AE90F2E7F090F44B780827
:101833001202647583F27582DF780812024F70100A
:1018430090F44F780812026490F2DF780812027362
:101853001218AF90F2E6F060F77508017509007889
:101863000812055D7C007D007AE47BF21212D61229
:10187300036F90F427E0702F7402F0740390F42840
:10188300F0743F90F42FF090F430F074FF90F43143
:10189300F0750804780812055D7C0C7DF47A297BC9
:1018A300F41228E512036F79008009F0121531E96B
:1018B3002212036F7F0402041074F81203B074FF42
:1018C3001203597E00EE75F00BA4241CF582E5F09B
:1018D30034F4F583E0640270070EEEC3940240E52E
:1018E30074026E70067A007B008065EE75F00BA4BF
:1018F300241CF8E5F034F4F9E488828983A3A3A3D4
:10190300A3A3A3A3A3A3F0740288828983F090F412
:101913001BE088828983A3A3A3A3A3A3A3A3A3A355
:10192300F090F41BE004F0E060FA64FF60F68510C9
:1019330082851183AA82AB8390F41BE0F9121B47C3
:10194300E970E1EE75F00BA4241CFAE5F034F4FB26
:1019530002165E74F81203B074FF120359851082E5
:10196300851183AA82AB83121B47E96029E075F0D6
:101973000BA4A9F0241CF582E934F4F583E0640296
:101983007014851082851183E075F00BA4241CFA72
:10199300E934F4FB80047A007B0002165E74F812CB
:1019A30003B0E98A828B836001A3A3A3A3A3A3A3A8
:1019B300A3A3E0FDED60078A828B83E070047902C4
:1019C3008008EDC3942040F6790002166374F51283
:1019D30003B074FF1203598908EAFEEBFF750A018D
:1019E300750B00780A12055D7C007D0074021203FA
:1019F300A4AA82AB831212D612036FEE641C700387
:101A0300EF64F47003021A8D90F41CE06402707AA0
:101A130090F424E0C3943E507174016508703190D2
:101A2300F419E0C0E090F424E0FAD0E0C39A505AED
:101A3300E0F8C3E498F8E49400F9851082851183F3
:101A4300E58228F8E58339F9743D28F582E480348A
:101A5300750A04780A12055DEE2402FCEF122DF3D9
:101A630012036FEA7001EB702190F424E0F8851003
:101A730082851183E58228F8E5833400F974E02830
:101A8300F58274FF39F5837401F07900851082853E
:101A93001183E070337402650870047920802F7914
:101AA3003D90F41AE0FAE9C39A403690F419E069DC
:101AB3007003E014F0E98E828F83A3A3A3A3A3A3EF
:101AC300A3A3F074010218B47402650870D390F4F0
:101AD30019E0C399400B90F41AE0C39950D7E980F9
:101AE300D3790080D074F41203B0EAFEEBFF890CC3
:101AF30079028C0AEE250AFAEF3400FB740C2AF5FE
:101B030082E43BF583E0A2E750358D0AEE250AF81F
:101B1300EF3400F9740C28F582E439F583E0650CA1
:101B2300701B750A04750B00780A12055D122F3DB0
:101B330012036FEA7001EB70047900800279017F70
:101B43000502041074F81203B0E9FD781C79F47CE3
:101B53000088828983E064027018A3A3A3A3A3A3CC
:101B6300A3A3A3A3E06D700AEC8A828B83F07901AF
:101B730080110CE8240BF8E93400F9ECC39402401B
:101B8300D0790002166374F31203B074FA12035986
:101B93008C0C8D0DE9FE12059B0103A81BA81BC726
:101BA3001BA81BDD1BEAFCEBFD8E087509007808FA
:101BB30012055DAA0CAB0D123070740212036F7420
:101BC3000602102B8A828B83121101122AB685100A
:101BD30082851183AC82AD8380CF8A828B83780820
:101BE30012026474021203A41222C874021203A420
:101BF30080E274F61203B08908780079007E007FD2
:101C0300007C007401650870067ABF7BF180047A5A
:101C1300437BF27D0388098A828B83E0601F740112
:101C2300650870230CE06404601DA3E0C39D501796
:101C3300EAF8EBF98A828B83A3E0FD800A740265DC
:101C4300086048EAFEEBFF0509EA2442FAEB340098
:101C5300FBE509C3940240BFEE7001EF7020E8700A
:101C630001E970067A007B008021E8FEE9FF8E829D
:101C73008F83A3E0FAA908121C91E5098008740177
:101C83002C8E828F83A3F0EEFAEFFB0213A074F87D
:101C93001203B0E9FB74016B703678BF79F1A2AF20
:101CA300E492E0FEC2AF7C0288828983E06010A3E5
:101CB300E0FDEAC39D500888828983A3E014F0E81D
:101CC3002442F8E93400F91CEC70DDEEA2E092AF97
:101CD30002166374F11203B074F8120359E9851004
:101CE30082851183F074011203A4ECF08A0E8B0F2A
:101CF30074021203A4E4F0A3F0F508F50985108239
:101D0300851183E0640170187EBF7FF17403F08A4C
:101D1300828B83E0640170301224B17001EB700791
:101D23007A007B00021E4E8A828B83A3A3A3A3A304
:101D3300A3A3A3E0F50BEA2402F8EB3400F974063D
:101D43001203A4122ABC8007E070D5A3E0F50B743C
:101D5300011203A4E064017005750A018003750A8A
:101D6300037402F0A2AFE492E0FAC2AF8E828F83D3
:101D7300E0650A6003021E2C7404F0EAA2E092AF4D
:101D830012249C543F650B6003021E24850E82853A
:101D93000F83E06401701F743F650B7009E508242D
:101DA30002F8E5098005EE2407F8EF3400F974041E
:101DB3001203A4122ABC750C04750D00780C1205CD
:101DC3005D74081203A41222C274061203A4122B18
:101DD300EB12036F850E82850F83E06003EA704187
:101DE3008E828F83A3E0C0E0851082851183E0FAA1
:101DF300D0E0C39A502B74021203A4E07002A3E054
:101E0300600B74021203A4122622E50AF08E828F5D
:101E130083A3121E5374021203A4EEF0A3EFF08007
:101E23000D8E828F83E50A80F5EAA2E092AFEE245D
:101E330042FEEF3400FF74011203A4E014F06003C8
:101E4300021D6774021203A41222B97408020FA0C0
:101E5300E0851082851183F02274F31203B08A0C9B
:101E63008B0D90F16FE0F50A7900122EEE74036585
:101E73000A600C7401650A70031214F21215937E42
:101E8300007F00750B00A2AFE492E0FAC2AF90F2BC
:101E9300E5E06038E014F0EAA2E092AF7901122E97
:101EA300EE90F2E4E0F50B7A0090F2E5E0FBEAC392
:101EB3009B501E8A08E50824E4F8E434F2F988828A
:101EC3008983A3E088828983F00A80DDEAA2E09215
:101ED300AFE50B70187A0A7B0012163DEE24010E53
:101EE300EF3400FFC3EE94F4EF940140967403655E
:101EF3000A600E7401650A70051214D2800312156C
:101F0300DEE50B70097901122EEE79018009850C4B
:101F130082850D83F0790002102E74F11203B074E0
:101F2300FF120359E9851082851183F08A0A8B0B0E
:101F3300ECFF74101203A4121FCB1219568A088BDC
:101F4300097E02EA7001EB600979011219A0E9FE2A
:101F53006007EEF97401020FA0E50A7002E50B6059
:101F6300F1EFC3943350EBE50E7002E50F70268555
:101F73000882850983A3E0FDEFFCAA0AAB0B850861
:101F830082850983A3A3A3A31222A7EA7001EB709E
:101F930008790380BF790280BB750C04750D007846
:101FA3000C12055DE5082402FCE5093400FDEA2472
:101FB300030A0A0AEB122E0F12036F7901AA0AAB66
:101FC3000B12262BE9FE808AE0F50EA3E0F50F2223
:101FD30074F31203B074FD120359E9FF8A0C8B0DDD
:101FE3008C088D091219567E02EA7001EB6009799B
:101FF300001219A0E9FE6004EEF98038740185101F
:1020030082851183F01203A4EFF0750A00750B00AB
:10201300780A12055D780A12055D780812055DAC31
:102023000CAD0D74061203A4AA82AB83122392741F
:102033000612036F740302102B74F21203B074FDC3
:10204300120359EAFF8C088D0990F2C7E0700EE97C
:102053001205D100020560200A6020A520E91205BF
:102063009B020805218421652205212E2109217067
:1020730022962205217A207E008C828D83E0704D8A
:10208300EF7023A3780812026490F44B78081202CD
:102093004F600890F2DF7808120273EEF9740302BE
:1020A3002BE3790280F774016F7057A385820C8547
:1020B300830DE50C7002E50D60E190F2DF78081204
:1020C3000264850C82850D831222C880CE64017060
:1020D30031EF7015A3780812026490F44B7808125C
:1020E300024F60B790F2D880AD74016F7014A3856E
:1020F300820C85830DE50C7002E50D609E90F2D88D
:1021030080BB7E0280958C828D83E0F9740E6F70A4
:10211300F174FF6960EC1219568A828B83E5827031
:1021230002E58360DDE4F0FE02209E74016F60032C
:10213300EF70CF7A0274016F701E750A04750B007D
:10214300780A12055D122676EAFCEBFDAA08AB09B4
:102153001228E512036F8024EF702390F2D7E0700A
:102163001D750A04750B00780A12055D7AD37BF29C
:102173001228E512036F740190F2D7F07A00EA8017
:10218300A674036F70778C828D83A3A3A3A3A3E0AC
:102193001205D1010506A1210103A121A5217D017C
:1021A30080027D038C82850983A3A3A3A3E0FC851E
:1021B3000882850983A3A31222B98508828509832E
:1021C3001222A7A80AA90B880C890DE87001E960FF
:1021D30027750A04750B00780A12055D8508828548
:1021E30009831222C2122E0812036F7901AA0CABC3
:1021F3000D12262BE902212A7E0302209E74026F10
:102203006003022105E4851082851183F08C828DA1
:1022130083A3A3A3A3A3E0C0E074011203A4D0E0AB
:10222300F0EC2406F50AED3400F50B780A12055D8F
:102233008C828D8312056EEC2404F50AED3400F5CF
:102243000B780A12055D8C828D83A3A31222C274BC
:10225300061203A4AA82AB83122392740612036F9D
:102263008092AA08AB09EFF9122690808774016F58
:102273006003022105750A04750B00780A12055DD7
:102283007C437DF4AA08AB091228E512036F7E0094
:1022930002209E74016F600302210574028C828DFB
:1022A30083F080EAA3A3A3A3A3E0F91222D88A0AA6
:1022B3008B0B2290F408E0FAA3E0FB2290F40AE0EF
:1022C300FCA3E0FD22E508F0A3E509F0A3E50AF08D
:1022D300A3E50BF02274F11203B0890C8A0E8B0F65
:1022E3008C088D097902121BF58A0A8B0BA80AA99F
:1022F3000BE8FEE9FFE87001E970067A007B0080D5
:102303007A740B25088E828F83A3A31223815480B2
:10231300450CF090F2C8E0C0E0EE240DF582EF34F6
:1023230000F583D0E0F090F2C8E004F060F81226E4
:102333006854BF7583F27582CBFAE04A54F84509B5
:10234300547788828983122381C2E7F085080A754E
:102353000B00780A12055DAC0EAD0FEE240EFAEFFA
:10236300122E0F12036F750A04780A12055D1226E6
:10237300061228E512036FEEFAEFFB020FA3F0EE4D
:10238300240B12238922F582EF3400F583E02274B3
:10239300F11203B074FE120359851082851183EC88
:1023A300F0A3EDF08A0A8B0B74111203A4E0F50C71
:1023B300A3E0F50D74151203A4121FCBE4850C8260
:1023C300850D83F07C017901121CD68A088B09AE36
:1023D30008AF09EE7001EF700302249775080075CA
:1023E3000900850A82850B83E06401700D1224B114
:1023F3007001EB700579020224998E828F83A3A367
:10240300E024F5F50A850C82850D83F0750B0078C1
:102413000A12055DEE240EFCEF3400FD7402120374
:10242300A41224A612036FE5087002E509600FEEFB
:1024330024401224BDF0EE24411224BDA3F07413F2
:102443001203A4E07002A3E0601E7508047509007E
:10245300780812055DEE2407FCEF3400FD741512B5
:1024630003A41224A612036FE50E7002E50F600F9A
:10247300EE240C12249F5407850E82850F83F08E61
:10248300828F83A3E0FA7901121C91E48E828F83F9
:10249300F0F980027904020F9EEE240BF582EF120D
:1024A300238C22E0FAA3E0FB123028740222A3E07B
:1024B300F91219568A088B09EA22122389850882A0
:1024C300850983A3A3A3A3A3A32274F11203B0EAF0
:1024D300FEEBFF12249C543FF508750A04750B00AC
:1024E300780A12055D122606122BF412036FEA70A6
:1024F30001EB7009E48E828F83F002260312249C81
:10250300A2E640F0E508602FC394075024EE2402AE
:10251300FAEF3400FBE508C3332430F582E434F4E6
:10252300F5831226221203AEE9640170C774018099
:10253300C4743F6508600974E02508C3941F50B450
:10254300EE2402F50EEF3400F50F75081C7509F43F
:10255300850E82F583A3A3A3A3A3A3A3A3A3E054FC
:102563003FF50B750A008018050AE508240BF508EA
:10257300E5093400F509E50AC3940240030224F790
:10258300850882850983E0640270DDA3A3A3A3A366
:10259300A3A3A3E0650B70D0743F650B602A750C91
:1025A30004750D00780C12055DE50E2405FCE50F9E
:1025B3003400FDE5082402FAE5093400122BF31276
:1025C300036FEA7001EB70A0850882850983A3A3DA
:1025D300A3A3A3A3A3A3A3A3E0F5081216D5740191
:1025E3008E828F83F090F2CDE07002A3E06011A998
:1025F3000890F2CD1226221203AEE960030224F7FB
:10260300020FA390F2C9E0FCA3E0FDEE2407FAEF6A
:102613003400FB22E5A8FAC2AF851082851183E05E
:10262300F8A3E0F58388822274F81203B0EAFEEB84
:10263300FF890812266854CF7583F27582CCFAE0BD
:102643004A88828983F0A908EE2402FAEF3400FB5A
:102653001212DCE97004790080027909E48E828F1A
:1026630083F0021663EE240CF8EF3400F9888289B4
:1026730083E022C082C08390F2D7E060067AD37BE6
:10268300F280047A3E7BF40215D979002274F312A6
:1026930003B0890A8A088B097404650A7009121544
:1026A300DE1214D20227707405650A70061214F242
:1026B3000227707406650A70368A828B83E0F912EA
:1026C3001956EA7001EB70057902022772750C0244
:1026D300750D00780C12055DEA2406FCEB3400FD51
:1026E300850882850983A31228E112036F807E7413
:1026F30007650A702F90F16FE064036004C2AF8036
:10270300FE7E147F0590DF3CE05450700512277F56
:1027130050F390DF3AE0F91216E8E985088285095B
:1027230083F080497408650A7005121593803E741E
:1027330009650A70051215DE80338A828B83E012E5
:10274300059B0002CB267A2775274F2775080212AF
:1027530015B0E5082410F582E434F4F583E090DF46
:102763002EF090F16FE064037003121537790002C5
:10277300102E75080180D875080080D37A407B003D
:102783001215FBEE24C0FEEF34FFFFC3EE9401EFFE
:102793009400A2D265D0332274F51203B074E91207
:1027A300035990F16FE0FF7E0685108285118374D3
:1027B3000CF0A374F4F074071203A4A882A9837421
:1027C300021203A4122ABC74041203A47408F07442
:1027D300051203A47403F0790474091203A4AC82F0
:1027E300AD837AD87BF2121B8974071203A4740198
:1027F300F090F2DEE0C0E074081203A4D0E0F074BD
:102803000D1203A47401F0740E1203A4122AC274ED
:10281300051203A47403F074071203A4A882A98306
:1028230074021203A4122ABC740F1203A4122AB254
:1028330074036F600B74016F70031214F21215931B
:1028430012166874036F600D74016F70051214D251
:1028530080031215DE851082851183AC82AD837AE5
:1028630002790212203CE9706E74071203A4E0544B
:102873007FFA74016A6004EE6A705C750804750976
:1028830000780812055D740B1203A4AC82AD837447
:10289300151203A41228E112036F78081202649040
:1028A300F44B780812024F600890F2DF78081202A6
:1028B30073750804750900780812055D7411120315
:1028C300A4AC82AD837ACF7BF21228E512036F901A
:1028D300F2DEE004F07E00EEF974170218B4AA8267
:1028E300AB8312302874022274F81203B07E007D89
:1028F300017C0090F2DE122F5170041216D50EEEF9
:10290300F902166374F51203B074EC1203598A08C2
:102913008B091218BC8A0A8B0BAE0AAF0BEE70013F
:10292300EF7003022AAB79011219D0E97009E48E22
:10293300828F83F0022AAB750A04750B00780A12A2
:10294300055D7C0C7DF474121203A41228E11203BA
:102953006F122AB274071203A4A882A98374021205
:1029630003A4122ABC74041203A47409F07405129C
:1029730003A47402F0790474091203A4AC82AD8336
:102983007ADF7BF2121B898E828F83A3A3A3A3A377
:10299300A3A3A3E0C0E0740D1203A4D0E0F090F26F
:1029A300E6E0C0E074081203A4D0E0F090F2CBE0BC
:1029B300C0E0740E1203A4D0E0F074071203A474F1
:1029C30001F0740F1203A4122AC2E96003022AADB4
:1029D30090F16FE0F50A74051203A47402F0740712
:1029E3001203A4A882A98374021203A4122ABCEEC0
:1029F3002402F8EF3400F9122AB67403650A600C56
:102A03007401650A70031214F21215931216687496
:102A130003650A600E7401650A70051214D28003FF
:102A23001215DE851082851183AC82AD837A02791B
:102A33000212203CE9704F74071203A4E0547FFA9A
:102A430074016A600F74036A600AE48E828F83F0F4
:102A53007905805674028E828F83F074091203A461
:102A6300E08E828F83A3A3A3A3A3A3A3A3A3122E66
:102A730032850882850983F0740A1203A4E0644056
:102A8300700E7401800CE48E828F83F07901801ABA
:102A930074038E828F83A3F090F2E6E004F0E0707B
:102AA300037401F079008002790374140218B4A846
:102AB30082A983851082851183E8F0A3E9F022744B
:102AC30002F0851082851183AC82AD837A03F912FB
:102AD300203C2274F21203B074FB1203598A0C8B4C
:102AE3000D750808EA240EF582EB1224A2F50EEA0E
:102AF3002405F8EB3400F974031203A4122ABC7EF4
:102B03001C7FF475090080110509EE240BFEEF34D8
:102B130000FFE509C39402504F8E828F83E0640265
:102B230070E6750A04750B00780A12055DEE24023F
:102B3300FCEF3400FD74051203A4122BEB12036F98
:102B4300EA7001EB70C28E828F83A3A3A3A3A3A316
:102B5300A3A3A3E0650E70B08E828F83E58270021B
:102B6300E5836004E4F0F50874828510828511839F
:102B7300F0E50C240DF582E50D1224A2C0E07401EA
:102B83001203A4D0E0F074021203A4E508F07D035D
:102B93007C03851082851183AA82AB83790212227A
:102BA300D88A088B09A808A909E8FEE9FFE870019B
:102BB300E9602B750804750900780812055DE50CBA
:102BC3002405FCE50D3400FDEE24030A0A0AEF1286
:102BD3002E0F12036F7900EEFAEFFB12262B74050A
:102BE30012036F7F07020410E0FAA3E0122BF32213
:102BF300FB122FCF74022274F11203B074F8120384
:102C0300598A0A8B0B8A828B83122EE2C3E89409BA
:102C1300E9122DEB4012EA2414F582EB1224A2648C
:102C23000260057902021E4E7508047509007808D2
:102C330012055DEA240EFCEB3400FD74061203A4B6
:102C4300AA82AB83123070740212036FC082C083F6
:102C530090F2DF780C120264D083D082780C1202D7
:102C63004F70C0E50A2412F582E50B1224A2F50881
:102C730090F41CE06402702C750C04750D00780C44
:102C830012055DE50A2405FCE50B122DF312036F13
:102C9300EA7001EB700E90F425E0650870067E1C67
:102CA3007FF480047E007F00EE7001EF604D122EF2
:102CB3001DC0E074011203A4D0E0122E18C0E0740A
:102CC300021203A4D0E0F090F2CBE0C0E074031250
:102CD30003A4D0E0122E4B7001E9601A750C047541
:102CE3000D00780C12055D122DFE12036F7900AAF8
:102CF30008AB0912262B7901022C2890F2E3E0702D
:102D030003022C261218BC8A0C8B0DAE0CAF0DEEF1
:102D13007001EF60E1750C04750D00780C12055D10
:102D2300E50A2405FCE50B3400FDEE24020A0AEF54
:102D3300122E0F12036FEEFAEFFB79021219D0E98C
:102D43007008E48E828F83F080AC90F2E5E064013A
:102D530060F0E0F50C7401250C122E32C0E0E50C96
:102D630024E4F582E434F2F583D0E0122E38E5084A
:102D7300F074028E828F83F0E50A2413F582E50B4B
:102D83001224A2644070047401800274038E828F43
:102D930083A3122E18C0E074021203A4D0E0F090B3
:102DA300F2CBE0C0E074031203A4D0E0F0122E1DB6
:102DB300C0E074011203A4D0E0122E4B7001E9604D
:102DC30081750C04780C12055D122DFE12036F79C8
:102DD30000AA08AB0912262BE96003022D45022C39
:102DE300F9C3E50A9401E50B9400A2D265D033221E
:102DF3003400FD7A1E7BF4122BF422E50A2405FC31
:102E0300E50B3400FDEA24030A0A0AE93400FB1245
:102E13003028740222122E3DE022748185108285AF
:102E23001183F0E50A240DF582E50B12238C22129F
:102E33002E38A3E022122E3DA322F08E828F83A38D
:102E4300A3A3A3A3A3A3A322F0850A82850B83A331
:102E5300A3A3A3A3A3A3A3A3A3E05407FA7403C345
:102E63009AFD7C04851082851183AA82AB83790243
:102E7300122E77221222D88A088B09A909EA227412
:102E8300F81203B0EAFEEBFF7D017C0090F2E6123C
:102E93002F5170071216D5790180418E828F8312CC
:102EA3002EE27408687001E9700FEE240CF582EFCE
:102EB3003400F5837401F08011EE240C12249F1268
:102EC300059B0101DD2ECD2ED62EEEFAEFFB122B44
:102ED300FA8007EEFAEFFB122AD67900021663E0B6
:102EE300F874F528F874FF3400F922C082C083E92E
:102EF300700474018001E490F2E3F00215D974F7D1
:102F03001203B0EAFEEBFF7D017C0090F2E7122F83
:102F13005170071216D57901801D750804750900D3
:102F2300780812055D122F3D12036FEA7001EB70F2
:102F3300047900800279020212C9122676EAFCEBB8
:102F4300FD8E828F83A3AA82AB83122BF422E0F936
:102F5300121AE8E92274F51203B0EAFEEBFF7D01D1
:102F63007C0090F2E8122F5170071216D579018078
:102F730055EE240C12249F640170497D038E828FC9
:102F830083E024F5FCEE240CFAEF3400FB79011204
:102F93002E777001E9602D750A04750B00780A120B
:102FA300055DEE2405FCEF122E0512036FE50824E0
:102FB3000EF582E5091224A2D2E7F07900AA08AB44
:102FC3000912262B79000218B779002274F812032C
:102FD300B074081203A4E0F8A3E08015A3AA82AB9F
:102FE300838C828D83A3AC82AD83E824FF18E934FC
:102FF300FFF9E87001E960248A828B83E0FE8C820A
:103003008D83E06E8A828B8360D2E0F88C828D831D
:10301300E0FAE8C39AFAE49400FB80047A007B00A8
:103023007F0102041074F71203B074091203A4E0C1
:10303300FEA3E0FFEAF8EBF980188C828D83E08829
:10304300828983F0A3A882A9838C828D83A3AC8217
:10305300AD838E088F0974FF25081E74FF3509FFA1
:10306300E5087002E50970D27F0202041074F712BA
:1030730003B074091203A4E0F8A3E0F9EAFEEBFF3E
:103083008A088B09C3EA9CEB9D405EEC28F582ED30
:1030930039F583C3E5829508E5839509404BEA2812
:1030A300FAEB39FBAC82AD831230FE7002E50960A6
:1030B30041EC24FF1CED34FFFDEA24FF1AEB34FF3F
:1030C300FB8C828D83E08A828B83F080DB8C828D04
:1030D30083E08A828B83F08C828D83A3AC82AD8361
:1030E3008A828B83A3AA82AB831230FE7002E50926
:1030F30070DBEEFAEFFB7F02020410880889097483
:10310300FF25081874FF3509F9E5082274F812033E
:10311300B074081203A4E0F8A3E0F98A828B8380D9
:1031230003ECF0A3E8FEE9FF74FF2E1874FF3FF9E8
:0B313300EE7001EF70EB7F0102041052
:04000005000000D324
:00000001FF
