:020000040000FA
:030000000200FCFF
:03002B000204C309
:03007B00020489F3
:10008300020C6C00000080FB12010BB9000302009C
:10009300F6E490F100788279028002F0A3D8FCD9CB
:1000A300FA90F281AA82AB839029E2785E7901808B
:1000B30015E493A3AC82AD838A828B83F0A3AA82D7
:1000C300AB838C828D83D8E9D9E790F100AA82AB08
:1000D300839029E2780179018015E493A3AC82AD82
:1000E300838A828B83F0A3AA82AB838C828D83D88D
:1000F300E9D9E712065A12008675D0007581C075DA
:1001030010007511F102008B790122E0667010086E
:10011300A3E066700A08A3E066700408A3E0662201
:10012300E0F608A3E0F608A3E0F608A3E0F622E66B
:10013300F008A3E6F008A3E6F008A3E6F022CAC09D
:10014300E0E6F0A308DAFAD0E0FA22CAC0E0E0A3BE
:10015300C582CCC582C583CDC583F0A3C582CCC57A
:1001630082C583CDC583DAE6D0E0CA22C3E498F81A
:10017300E499F91201B08026C3E49AFAE49BFBE9FF
:1001830020E7E91201B0E498F8E499F922C3E4986E
:10019300F8E499F91201B0E498F8E499F9C3E49A00
:1001A300FAE49BFB22EB20E7CFE920E7E0B900105C
:1001B300BB0008E88AF084F8AAF022E4FBC8FA221C
:1001C300EB70227B10C833C8C933C9335007C39AB5
:1001D300C3DBF280069A50012ADBEAC833F4C8C9AC
:1001E30033F4C9FA2275F008E4C833C8C933C933F4
:1001F300C99AC99B5004C92AC93BD5F0ECFBC83343
:10020300F4C8E4C9FA22600C08C6C313C618C6139F
:10021300C6D5E0F422251010AF08F51040021511E1
:100223008008F51040021511D2AF22C0D02510105E
:10023300AF08F510500205118008F51050020511A2
:10024300D2AFD0D0222510F58210AF08F5104002AE
:1002530015118008F51040021511D2AF85118322C4
:100263002510F582E43511F58322E4732510C58248
:10027300C0E0E51134FFC583C0E0E510C3958224D7
:10028300F9F8E4C5A8858311858210C5A8E8CEF0E6
:10029300A3E520F0A37808E608F0A3DEFAEFF0A3C5
:1002A300E58124FBF8E608F0A3E608F0A30808E6D6
:1002B30008F0A3E608F0A315811581D0E0FED0E095
:1002C300F815811581E8C0E0EEC0E0228511838531
:1002D3001082E0A3FEE0A3F5207808E0A3F608DF90
:1002E300FAE0A3FFE0A3C0E0E0A3C0E0E0A3C0E026
:1002F300E0A3C0E0E4C5A8858210858311C5A8D01A
:1003030083D08222C0D02510C582C0E0E51134FF1E
:10031300C583C0E0E510C3958224F310AF0885833D
:10032300118582108008858311858210D2AFC8F0B1
:10033300A3E9F0A3EAF0A3EBF0A37908E709F0A39C
:10034300D8FAECF0A3EDF0A3EEF0A3EFF0A3D0E026
:10035300F0A3D0E0F0A3D0E0F0A3E520F0A3E5F014
:10036300F0A322851183851082E0C0E0A3E0F9A306
:10037300E0FAA3E0FBA37808E0F608A3DFFAE0FCC9
:10038300A3E0FDA3E0FEA3E0FFA3E0C0E0A3E0C081
:10039300E0A3E0F5D0A3E0F520A3E0A3F5F0E4C5E6
:1003A300A8858311858210C5A8D082D083D0E0F8B8
:1003B300D0E03274028000C0E0F404120248D0E0BE
:1003C3001201412274028000CCC0E0EDC0E0E510D0
:1003D300C39CCCAD1150011D10AF068C108D118044
:1003E300068C108D11D2AF12014ED0E0FDD0E0FC8F
:1003F30022D083D082C5F0E493A3C5F0C395F0F572
:10040300F0E493A3C395F04005E5F0048001E4759F
:10041300F002A42582F582E5F03583F583E493A306
:10042300C0E0E493C0E022D083D082CCC0E0E49368
:10043300A360061204541470FAE493A36006120432
:10044300731470FAD0E0FCE493A3C0E0E493C0E03B
:1004530022C0E0E493A3D39C5010E493A3C39C4035
:100463000AD0E0D0E0D0E0020447A3A3A3D0E02267
:10047300C0E0E493A36C7009D0E0D0E0D0E00204C4
:1004830047A3A3D0E022C0E0C0D0C082C083C2AFE4
:100493007404658A7006740190F100F07408658A2B
:1004A3007006740290F100F0758A00C2EB539AEF64
:1004B30053BEFCE5BED2AFD083D082D0D0D0E032E1
:1004C300C0E0C2AFC2C775A102C2AD53BEFCE5BE58
:1004D300D2AFD0E03274F812026F7402696005740F
:1004E3000369705FE5D5FCE5D4FDE5D6FE43D6810F
:1004F300E5D6740269700A74F290F28FF074818009
:100503000874F290F28FF0748890F290F074F2F520
:10051300D575D48F75D601E5A5FAE5A56A60FB43C9
:10052300C702740449F5BE000000740355BE600899
:1005330075D701004387010053C7FD8CD58DD48E39
:10054300D680227401697016E5A5FAE5A56A60FBF9
:1005530043BE01000000740355BE60098003E970C7
:100563000443870100020F2974F712026F89088A76
:1005730009ECFEEDFF7C007D007A0479031218FC80
:10058300539AFEC2AF53BEFBE5BEA2E550FA75C651
:10059300C974C965C670FA43BE04740355092404BB
:1005A300F5A2E5A5FAE5A56A60FBE5A5FAE5A56A66
:1005B30060FBEFF5A4EEF5A3C2C775A110D2ADD2CF
:1005C300AFA9081204D853BEFBE5BEA2E650FA75E4
:1005D300C689748965C670FA120648020E4974F812
:1005E30012026FE9FEEAFF7C007D007A04790312B0
:1005F30018FC539AFED2AF53BEFBE5BEA2E550FAF8
:1006030075C6C974C965C670FA43BE04758A00C24B
:10061300EB538DF3E58DEF333354FC458DF58D436B
:100623009A10D2AFEEF91204D853BEFBE5BEA2E690
:1006330050FA75C689748965C670FA12064890F136
:1006430000E0020F2843BE047C007D007A05790395
:100653001218FC439A012274FA12021843FE014352
:10066300FE02C290C29185108285118374AAF0A301
:10067300E41214C7E07004C2AF80FE75B60EE5B491
:10068300A2E750FAE5BAF9E5BB90F101F075B60EB1
:10069300E5B4A2E750FAE5BAF8E5BBF0E8F5BCE942
:1006A300F5BC7E00120DFB8E087402120263E58214
:1006B3002508F582E5833400F583E9F00EEEC39453
:1006C3000440E17402120263AC82AD837A007905BF
:1006D3001218FC90F25FE07056120A2B7AEA7B093B
:1006E300121006E97052120DBC121F3C8A828B83D2
:1006F300E064FF6022E090DF05F07C008C82A8823A
:10070300EA28F582EB121D77C0E0120D8ED0E0F0DF
:100713000CECC3940440E590F29EE064FF7004C2C5
:10072300AF80FE740190F156F0740790DF03F0740C
:100733000190F25FF0122059D290D2917CE87D03B0
:100743001208917A0379031205E1E9FA74016A70D8
:1007530005120763800874026A700312089D80FE05
:1007630074F712026F74FA120218740290F104F013
:1007730090F105F080031209747A027BF11221C112
:10078300E970F3C290C2918036D2917CF47D017AF4
:1007930001790212056BC29190F106E004F0643214
:1007A300701DE4F0FCFD7A0979031218FCD290D293
:1007B300917CB87D0B1208917A0179031205E1A2AD
:1007C30093400BD290D2917C887D13120891120929
:1007D3008FC0E07401120263D0E0F07E0075080060
:1007E30075090078081203B67C02EC120263AA8230
:1007F300AB8390F102E0F91217F8740212022E7C17
:10080300007D007A0879031218FC7AFA7B00120F34
:100813000790F103E070070EEEC3940340BF7C0022
:100823007D007A0979031218FCE0700302078C74C7
:10083300021202631209B0600312099F90F102E0F1
:10084300C0E07403120263D0E01209D96019740482
:10085300120263120989400690F105E014F090F149
:1008630005E0C394025010740412026312097F500E
:100873000690F105E004F0D2907CF47D017A0179D1
:100883000212056BC290E490F106F00207C27A01EE
:10089300790212056BC290C2912274F712026F742F
:1008A300FA120218740290F104F090F105F0D2905C
:1008B300D29180031209747A027BF112172EE97028
:1008C300F3C290D2917C007D007A0879031218FC60
:1008D30090F103E060FA7C007D007A097903121835
:1008E300FC74021202631209B0600312099F90F1B3
:1008F30002E0C0E07403120263D0E01209D9601968
:100903007404120263120989400690F105E014F0A1
:1009130090F105E0C39402501074041202631209AB
:100923007F500690F105E004F012098FC0E07401D6
:10093300120263D0E0F0750800750900780812030D
:10094300B67C02EC120263AA82AB8390F102E0F957
:100953001217F8740212022E7C007D007A087903C4
:100963001218FCD2907AFA7B00120F07C290020889
:10097300D3639001E590639002E59022E0C394BABB
:10098300A2D265D03322E0C394D980F490F105E07C
:10099300851082851183F090F104E022E090F10448
:1009A300F07C047DF17A0A79031218FC22AC82AD43
:1009B30083851082851183AA82AB8390F102E0F9CB
:1009C300121894E490F103F090F104E0FA85108298
:1009D300851183E06A22F0AC82AD837A0679031233
:1009E30018FC90F105E022C082C083E96011740114
:1009F30090F103F07C007D007A0979031218FC79E9
:100A030000020FBA53CBEFC2D843CB0475F00DEA03
:100A1300A4F5CD74FC55CB4402F5CB43CB10A2D83F
:100A230050FC53CBEFC2D82274F712026F75084003
:100A330075090078081203B6120B9712022E90DF85
:100A430036E054EF64816004C2AF80FE90DF37E08C
:100A5300C394045004C2AF80FE53BEFBE5BEA2E6BE
:100A630050FA53C6BF43BE0474F1F5D575D44E7422
:100A73003C90DF13F0741490DF14F0743D90DF02A8
:100A8300F0740590DF04F074FE90DF2EF07409908B
:100A9300DF25F0740A90DF07F0E490DF08F0745D5F
:100AA30090DF09F0744490DF0AF074EC90DF0BF0F0
:100AB300748690DF0CF0748390DF0DF0740390DF85
:100AC3000EF0742390DF0FF0743B90DF10F074444A
:100AD30090DF11F0741690DF15F0746C90DF16F050
:100AE300740390DF17F0744090DF18F0749190DF77
:100AF30019F0745690DF1AF0741090DF1BF0120D8A
:100B0300E9741190DF1FF0748890DF23F074319043
:100B1300DF24F0740290F107F0120E7D740390DF6E
:100B230006F07E007F0075E1027508E8F50990DFA5
:100B33003CE05450701F7A407B00120EC2E508243B
:100B4300C0F508E50934FFF509C3E5089401E50993
:100B530012205450D97A10EEC333FEEF33FF90DFE7
:100B63003AE0A2E0E492E04EFE1AEA70EA74804EA4
:100B7300F5BCEFF5BC120E7D90F14A7423F0A3741B
:100B830001F090F14C7422F0A37424F0439A01D243
:100B9300AF020E497C007D007A087BF11229B37401
:100BA300022274F712026FEAFEEBFF89097508004F
:100BB30090F107E064017004C2AF80FE120E7DEF76
:100BC30090F14EF0EE90F14FF074DF90F150F0742D
:100BD300D990F151F07420120E4E744190F155F0FA
:100BE300E509701143D60175E103E5E9A2E450FA82
:100BF30053E9EF8061740165096004C2AF80FE753B
:100C030009048019120E7D12118C540F04FE90F109
:100C13004C121B76120EC21EEE70F3150943D60159
:100C230075E10290DF3BE0640D70F87EE87F03908E
:100C3300DF3CE05450700512203C50F375E1039003
:100C4300DF3BE0640D6008E5E9A2E450FA80A1E52A
:100C53000970B1750801120E7D90F107E06403700D
:100C630003120E01A908020E49C0E074F112030732
:100C730090F107E064036004C2AF80FEE5E9A2E4FB
:100C8300502BE5E9A2E6502553E9EF53E9BF539B07
:100C9300FCE59B120E7D75083E750900780812036A
:100CA300B6120B9712022E120E01020D4853E9EFF2
:100CB300539BFCE59B75080275090078081203B67F
:100CC30090F108E0042408FCE434F1FD7A467BF15A
:100CD300122914740212022EE0FA90F147E0A2E7FF
:100CE30050528A0874012508F8E43400F9E8943F67
:100CF300E99400C365D033503BEAC3940840359070
:100D0300F156E0704590F146E0F9120FBFE9F0901B
:100D1300F147E0C2E7F079011214CFEA7001EB600A
:100D23001390F108EA2402FCEB3400FD7440120135
:100D33004E121D9475083E78081203B6120B9712D3
:100D4300022E43D6017F020203667C007B007A00F9
:100D53008A82A882E82409F582E434F1F583E0FD70
:100D6300120D8EE06D70010CE82497F582E434F2E5
:100D7300F583E06D70010B0AEAC3940440D2740456
:100D83006B608274046C70AC020D08E8249EF582DB
:100D9300E434F2F5832274F812026F90F107E064F1
:100DA300016013A2AFE492E0FEC2AF120EA474017D
:100DB300F0EEA2E092AF020F29C082C083E5C6A283
:100DC300E65004C2AF80FE90F107E0640170141294
:100DD3000DE9740290F107F075E10490DF3BE064E4
:100DE3000170F8020FBA74A990DF1CF0740A90DF47
:100DF3001DF0E490DF1EF02243B404A9BC2274F773
:100E030012026F74DF90F14EF074D990F14FF074C9
:100E1300F190F150F0740890F151F07480120E4E7D
:100E2300741190F155F075D68175083E75090078F7
:100E3300081203B6120B9712022E43D601120E9B11
:100E430075E1024391107F020202CF90F152F074D8
:100E53004090F153F0741390F154F022C082C08398
:100E630090F107E064017004C2AF80FEE0640360A8
:100E7300067403F0120E01020FBAC082C0835391AD
:100E8300EF75E10490DF3BE0640170F875D68153A0
:100E9300D1FE120E9B020FBA539BFCE59B53E9EF65
:100EA30022C082C08390F107E064017004C2AF8066
:100EB300FEE064037006120E7D7402F0020FBA7432
:100EC300F712026F8A088B0974047808120209AEBC
:100ED30008AF09EA7001EB6028A2AFE492E0F508DD
:100EE300C2AF7A107B00120A07E508A2E092AFEEC8
:100EF300F8EFF974FF281E74FF39FFE87001E970F9
:100F0300D8020E4974F812026FEAFEEB800E7AF4EF
:100F13007B01120EC2EE24FF1EEF34FFFFEE7001C1
:100F2300EF70EB8001F97F010202CF74F612026FBA
:100F330090F14AE0F508A3E0F509A2AFE492E0FAE4
:100F4300C2AF74011217EE800CE50824FFF508E523
:100F53000934FFF509E5087002E50960357E1F7F56
:100F630000A2AFE492E0F50AC2AF7A107B00120A46
:100F730007E50AA2E092AF90F148E07012EEF8EFB5
:100F8300F974FF281E74FF39FFE87001E970D2E09D
:100F930060B7A2AFE492E0FAC2AFE490F148F01276
:100FA30017EE7F030202CFC082C08390F149E06055
:100FB30006740190F148F0D083D08222C008C009A2
:100FC300E9C39480E94019F879FF7A027B001201A2
:100FD300A88808890974B92508F874FF3509800BB6
:100FE300C313F874B928F874FF3400F9C3E8948084
:100FF300E994FFA2D265D03350027880E8F9D00992
:10100300D0082274F512026FEAFEEBFF75081A7519
:10101300090078081203B67C007D007AA37BF212E4
:101023000B9F12022E740290F2A3F0743D90F2A46F
:10103300F0742090F2A5F0740190F2A6F075080404
:1010430078081203B67C007D007A677BF2120B9F4F
:1010530012022E90F26FE0701378081203B67C0030
:101063007D007A6B7BF2120B9F12022E90F26FE0DF
:10107300701978081203B67CC97DF27A6B7BF21281
:101083001D7E12022E740190F26FF0E490F264F070
:1010930090F265EEF0A3EFF0121F3C90F261EAF0DC
:1010A300A3EBF012118C90F260F060F7750884786E
:1010B300081203B67C007D007A577BF1120B9F1256
:1010C300022E78081203B67C007D007ADB7BF112D6
:1010D3000B9F12022E12118C90F280F090F2D278B4
:1010E3000812012390F270780812013290F274EE24
:1010F300F0A3EF12118B90F27612118B90F27FF026
:1011030090F2D678081201237583F27582777808F6
:1011130012010E701090F2DA780812012390F27720
:10112300780812013212118C90F27EF060F7750884
:101133000175090078081203B67C007D007A7C7B78
:10114300F2120B9F12022E90F2B2E0702F7402F093
:10115300740390F2B3F0743F90F2BAF090F2BBF0E4
:1011630074FF90F2BCF075080478081203B67C97FC
:101173007DF27AB47BF2121D7E12022E7900800377
:1011830012022E7F040202CFF0120DFBE92274F843
:1011930012026F74FF1202187E00EE75F00BA42486
:1011A300A7F582E5F034F2F583E0640270070EEEF2
:1011B300C3940240E574026E70067A007B0080657A
:1011C300EE75F00BA424A7F8E5F034F2F9E4888275
:1011D3008983A3A3A3A3A3A3A3A3A3F074028882D5
:1011E3008983F090F2A6E088828983A3A3A3A3A3B3
:1011F300A3A3A3A3A3F090F2A6E004F0E060FA6433
:10120300FF60F6851082851183AA82AB8390F2A6D4
:10121300E0F912141CE970E1EE75F00BA424A7FAAF
:10122300E5F034F2FB740112022E020F29C082C0D2
:101233008374FF120218851082851183AA82AB83FF
:1012430012141CE96029E075F00BA4A9F024A7F59A
:1012530082E934F2F583E06402701485108285110B
:1012630083E075F00BA424A7FAE934F2FB80047A37
:10127300007B00740112022E020FBAC082C083E900
:101283008A828B836001A3A3A3A3A3A3A3A3A3E045
:10129300FCEC60078A828B83E0700479028008EC9F
:1012A300C3942040F67900020FBA74F512026F74EA
:1012B300FF1202188908EAFEEBFF750A01750B009D
:1012C300780A1203B67C007D007402120263AA82BC
:1012D300AB83120B9F12022EEE64A77003EF64F22E
:1012E300700302136A90F2A7E06402707A90F2AF7F
:1012F300E0C3943E507174016508703190F2A4E02C
:10130300C0E090F2AFE0FAD0E0C39A505AE0F8C3DD
:10131300E498F8E49400F9851082851183E5822826
:10132300F8E58339F9743D28F582E48034750A04BD
:10133300780A1203B6EE2402FCEF12269512022E4F
:10134300EA7001EB702190F2AFE0F885108285110D
:1013530083E58228F8E5833400F974E028F5827484
:10136300FF39F5837401F07900851082851183E0DC
:1013730070337402650870047920802F793D90F2F0
:10138300A5E0FAE9C39A403690F2A4E0697003E05D
:1013930014F0E98E828F83A3A3A3A3A3A3A3A3F033
:1013A30074010211837402650870D390F2A4E0C340
:1013B30099400B90F2A5E0C39950D7E980D3790007
:1013C30080D074F512026FEAFEEBFF7508028C0AF7
:1013D300EE250A12140CA2E7502A8D08EE250812F6
:1013E300140C69701C75080475090078081203B69B
:1013F3001227E112022EEA7001EB700575080080D6
:1014030003750801A908021186FAEF3400FB740C76
:101413002AF582E43BF583E02274F812026F7CA77D
:101423007DF27E008C828D83E064027018A3A3A3F7
:10143300A3A3A3A3A3A3A3E069700AEE8A828B8369
:10144300F0790180110EEC240BFCED3400FDEEC3AA
:10145300940240D07900020F2974F512026F74FAD6
:10146300120218EAFEEBFFECFAEDFBE91203F402B9
:10147300027C1482147C149414EEFCEFFD802E1273
:101483001B7C851082851183ECF0A3ED1214C780B9
:10149300188E828F837808120123740212026378F4
:1014A300081201327402120263AC82AD838908759B
:1014B300090078081203B6122914740212022E745A
:1014C30006021183F08510828511832274F61202BD
:1014D3006FE9FC780079007E007F007D0074016C69
:1014E30070067A577BF180047ADB7BF175090388F8
:1014F300088A828B83E0602074016C70240DE064A1
:1015030004601EA3E0C395095017EAF8EBF98A8239
:101513008B83A3E0F509800974026C6048EAFEEB53
:10152300FF0508EA2442FAEB3400FBE508C3940202
:1015330040BFEE7001EF7020E87001E970067A0099
:101543007B008021E8FEE9FF8E828F83A3E0FAEC23
:10155300F912156BE508800874012D8E828F83A321
:10156300F0EEFAEFFB020FA5C082C083740169702D
:1015730036785779F1A2AFE492E0FDC2AF7B0288DF
:10158300828983E06010A3E0FCEAC39C5008888250
:101593008983A3E014F0E82442F8E93400F91BEB53
:1015A30070DDEDA2E092AF020FBA74F112026F7414
:1015B300F8120218851082851183EAF0A3EBF08CF0
:1015C3000A7402120263E4F0A3F0F50EF50F74013E
:1015D3006970237E577FF1750C03121721851082E2
:1015E300851183A37038121EDA12171A8A0E8B0F15
:1015F300EA7001EB70077A007B000217178A828B6F
:1016030083A3A3A3A3A3A3A3A3E0F508EA2402F857
:10161300EB3400F974061202631223768013121E50
:10162300DAE070D2851082851183121ED9A3E0F50A
:10163300087401650A70057509018003750903754E
:101643000D02A2AFE492E0FAC2AF8E828F83E0650F
:101653000960030216F974041217F1121D71543F45
:10166300650860030216F1121721701F743F6508A5
:101673007009E50E2402F8E50F8005EE2407F8EF64
:101683003400F97404120263122376750A04750B8D
:1016930000780A1203B67408120263121B807406E0
:1016A30012026312249D12022E8510828511831269
:1016B3001ED3E06003EA70368E828F83A3E0C39566
:1016C3000C502B7402120263E07002A3E0600B74EF
:1016D30002120263121ED3E509F08E828F83A3E008
:1016E300F50C7402120263EEF0A3EFF0800D8E820C
:1016F3008F83E50980F5EAA2E092AFEE2442FEEF84
:101703003400FF150DE50D60030216457402120245
:1017130063121B76021C41A3E0F9121230228510DA
:1017230082851183121ED7E064012274F312026FC3
:101733008A088B0990F107E0F50A79001227907463
:1017430003650A600C7401650A7003120DBC120E66
:101753005F7E007F007C00A2AFE492E0FAC2AF900C
:10176300F27DE06034E0141217F1790112279090B2
:10177300F27CE0FC7A0090F27DE0FBEAC39B501E12
:101783008A0CE50C247CF8E434F2F988828983A37B
:10179300E088828983F00A80DDEAA2E092AF8C0BB5
:1017A300E50B70187A0A7B00120F07EE24010EEF87
:1017B3003400FFC3EE94F4EF940140997403650A77
:1017C300600E7401650A7005120D998003120EA450
:1017D300E50B700979011227907901800985088248
:1017E300850983F079007F060202CF90F149F0EA80
:1017F300A2E092AF2274F112026F8A088B098C0A5D
:10180300740F120263E0F50EA3E0F50F1212308A93
:101813000C8B0DAE0CAF0D7902EE7001EF60071962
:1018230012127EE96003021C46E5087002E50960B6
:10183300F5E50AC3943350EEE50E7002E50F70220E
:101843008E828F83A3E0FDAC0AAA08AB098E828F38
:1018530083A3A3A3A3121B86EA7001EB7008790389
:1018630080C4790280C0750A04750B00780A1203DC
:10187300B6EE2402FCEF3400FDEA24030A0A0AEB65
:101883001226B712022E7901AA08AB09121EF180A3
:101893009574F312026F74FD120218890AEAFEEBC3
:1018A300FF8C088D091212307902EA7001EB604156
:1018B300191912127EE9703974018510828511831A
:1018C300F0120263E50AF0750A00750B00780A123C
:1018D30003B6780A1203B678081203B6EEFCEFFDDE
:1018E3007406120263AA82AB83121C5C7406120292
:1018F3002E740312022E0217E974F512026F74FD9F
:101903001202188A08ECFEEDFF90F25FE07013E913
:1019130012042A00020525190A2519201979020241
:101923001B71E91203F402082019661A301B2019EF
:101933000D1AE1193B1B5F1B20193F1979008E8299
:101943008F83E07055EA701EA3780812012390F28A
:10195300D6780812010E7003021B7190F277780893
:10196300120132021B717401650870B1A3AA82AB24
:1019730083EA7001EB7003021B7190F2777808120F
:1019830001238A828B83E508F0A3E509F0A3E50A26
:10199300F0A3E50BF0021B7180836401600302195D
:1019A30020EA7018A3780812012390F2D67808125F
:1019B300010E7003021B7190F27080A2740165081E
:1019C30070D6A3AA82AB83EA7001EB7003021B718A
:1019D30090F27078081201238A828B8380808E8232
:1019E3008F83E0F9740E650870AE74FF6960A91205
:1019F30012308A088B09A808A90988828983E870AC
:101A030001E96094E4F0F9021B7174016508600355
:101A1300EA70857A0274016508701E7508047509F9
:101A23000078081203B6121F3CEAFCEBFDEEFAEF56
:101A3300FB121D7E12022E8025E508702390F26FA3
:101A4300E0701D75080475090078081203B67A6BF7
:101A53007BF2121D7E12022E740190F26FF07A0057
:101A6300EA80A37403650870658E828F83A3A3A3A2
:101A7300A3A3E012042A010506841A0103841A8829
:101A83001A7D0180027D038E828F83A3A3A3A3E02B
:101A9300FC8E828F83A3A3121B768E828F83121BED
:101AA30086A909EA7001E96020750A04750B0078BC
:101AB3000A1203B6121B7C1226B012022E7901AA57
:101AC30008AB09121EF1021B717903021B71740228
:101AD30065086003021920E48510828511831226AC
:101AE300BDE0C0E07401120263D0E0F0EE2406F51D
:101AF30008EF3400F50978081203B68E828F83123B
:101B030003C7EE2404F508EF3400F509780812033F
:101B1300B68E828F83A3A3121B807406120263AA5C
:101B230082AB83121C5C740612022E8041EEFAEF24
:101B3300FBA908121F568036740165086003021959
:101B43002075080475090078081203B67CCE7DF26F
:101B5300EEFAEFFB121D7E12022E8010740165084F
:101B6300600302192074028E828F83F0790074035C
:101B7300021183E0FAA3E0FB228E828F83E0FCA3B1
:101B8300E0FD22A3A3A3A3A3E0F9121B9122121B3E
:101B9300998A088B092274F112026F89088A0E8BC5
:101BA3000F8C0A8D0979021214CF8A0C8B0DA80CA5
:101BB300A90DE8FEE9FFE87001E970067A007B00F1
:101BC300807A740B250A8E828F83A3A3121C4B5435
:101BD300804508F090F260E0C0E0EE240DF582EF5E
:101BE3003400F583D0E0F090F260E004F060F81286
:101BF3001F2E54BF7583F2758263FAE04A54F84589
:101C030009547788828983121C4BC2E7F0750B0055
:101C1300780A1203B6AC0EAD0FEE240EFAEF1226BD
:101C2300B712022E75080475090078081203B6125C
:101C33001EE0121D7E12022EEEFAEFFB80057408E1
:101C430012022E7F080202CFF0EE240B121C532245
:101C5300F582EF3400F583E02274F112026F74FE13
:101C6300120218851082851183ECF0A3EDF08A0A25
:101C73008B0B7411120263E0F50CA3E0F50D7415E0
:101C8300120263E0F50EA3E0F50FE4850C82850DE7
:101C930083F07C0179011215AD8A088B09AE08AF78
:101CA30009EE7001EF7003021D6A750800750900E3
:101CB300850A82850B83E06401701212171A8A0861
:101CC3008B09EA7001EB70057902021D6C8E828F1D
:101CD30083A3A3E024F5F50A850C82850D83F075B3
:101CE3000B00780A1203B6EE240EFCEF3400FD74E9
:101CF30002120263121D7B12022EE5087002E5092F
:101D0300600FEE2440121D84F0EE2441121D84A3C3
:101D1300F07413120263E07002A3E0601E750804FE
:101D230075090078081203B6EE2407FCEF3400FDB2
:101D33007415120263121D7B12022EE50E7002E56A
:101D43000F600FEE240C121D745407850E82850F4D
:101D530083F08E828F83A3E0FA790112156BE48EF0
:101D6300828F83F0F9800279047402021C43EE240B
:101D73000BF582EF121C5622121B761228CC74022A
:101D830022121C53850882850983A3A3A3A3A3A3BB
:101D93002274F112026FEAFEEBFF121D71543FF53C
:101DA30008750A04750B00780A1203B6121EE012B6
:101DB30026A012022EEA7001EB7009E48E828F8353
:101DC300F0021ED0121D71A2E640F0E50860ECC3DC
:101DD30094075024EE2402FAEF3400FBE508C333E2
:101DE30024BBF582E434F2F583121ED312026DE9AB
:101DF300640170C7740180C4743F6508600EE50810
:101E0300C3942040B6E508C3943F50AFEE2402F5D7
:101E13000EEF3400F50F7508A77509F2850E82F5EC
:101E230083A3A3A3A3A3A3A3A3A3E0543FF50B7589
:101E33000A008018050AE508240BF508E5093400B3
:101E4300F509E50AC394024003021DBE8508828595
:101E53000983E0640270DDA3A3A3A3A3A3A3A3E068
:101E6300650B70D0743F650B602B750C04750D000A
:101E7300780C1203B6E50E2405FCE50F3400FDE5EE
:101E8300082402FAE5093400FB1226A012022EEA06
:101E93007001EB709F850882850983A3A3A3A3A385
:101EA300A3A3A3A3A3E0F508120FAA74018E828F44
:101EB30083F090F265E07002A3E06011A90890F24C
:101EC30065121ED312026DE96003021DBE021C4699
:101ED300121ED722E0F8A3E0F58388822290F261F4
:101EE300E0FCA3E0FDEE2407FAEF3400FB2274F8D4
:101EF30012026FEAFEEBFFE9FA121F2E54CF75832D
:101F0300F2758264FBE04B88828983F0EAF9EE2460
:101F130002FAEF3400FB120BA5E97004790080028A
:101F23007909E48E828F83F0020F29EE240CF8EFF7
:101F33003400F988828983E022C082C08390F26FE3
:101F4300E060067A6B7BF280047AC97BF2020FBAF7
:101F530079002274F512026F8A088B097404697080
:101F630009120EA4120D9902203774056970061226
:101F73000DBC02203774066970358A828B83121771
:101F83001BEA7001EB70057902022039750A0275AC
:101F93000B00780A1203B6EA2406FCEB3400FD8535
:101FA3000882850983A312219F12022E022037740F
:101FB3000769702F90F107E064036004C2AF80FEED
:101FC3007EE87F0390DF3CE05450700512203C50C4
:101FD300F390DF3AE0F9120FBFE9850882850983A0
:101FE300F080517408697005120E5F8047740969A7
:101FF3007005120EA4803D8A828B83E01203F400E5
:10200300028A1F162011200C20750802800875080B
:10201300018003750800120E7DE508249BF582E418
:1020230034F2F583E090DF2EF090F107E064037063
:1020330003120E0179000211867A407B00120EC250
:10204300EE24C0FEEF34FFFFC3EE9401EF122054E1
:1020530022940002098374F512026F74E9120218C4
:1020630090F107E0FF7E068510828511837497F057
:10207300A374F2F07407120263A882A98374021294
:10208300026312237674041202637408F074051257
:1020930002637403F079047409120263AC82AD83A2
:1020A3007A707BF212145C74071202637401F0906D
:1020B300F276E0C0E07408120263D0E0F0740D120F
:1020C30002637401F0740E12026312237C7405120E
:1020D30002637403F07407120263A882A983740273
:1020E300120263122376741312026312236C7403B5
:1020F3006F600B74016F7003120DBC120E5F120F31
:102103002E74036F600D74016F7005120D998003B7
:10211300120EA4851082851183AC82AD837A027975
:10212300021218FCE9706E7407120263E0547FFA1E
:1021330074016A6004EE6A705C75080475090078BE
:10214300081203B6740B120263AC82AD83741112CE
:10215300026312219F12022E780812012390F2D6F5
:10216300780812010E600890F27778081201327530
:10217300080475090078081203B67415120263ACDB
:1021830082AD837A677BF2121D7E12022E90F27665
:10219300E004F07E00EEF97417021183AA82AB8388
:1021A300021D7E74F812026F7E007D017C0090F2A6
:1021B300761227F57004120FAA0EEE020F2874F59B
:1021C30012026F74EC1202188A088B091211918A99
:1021D3000A8B0BAE0AAF0BEE7001EF70030223659F
:1021E30079011212ADE97009E48E828F83F0022324
:1021F30065750A04750B00780A1203B67C977DF2A5
:10220300741212026312219F12022E12236C74079E
:10221300120263A882A983740212026312237674E2
:10222300041202637409F074051202637402F079F4
:10223300047409120263AC82AD837A777BF21214C1
:102243005C8E828F83A3A3A3A3A3A3A3A3E0C0E075
:10225300740D120263D0E0F090F27EE0C0E07408E7
:10226300120263D0E0F090F263E0C0E0740E120259
:1022730063D0E0F074071202637401F0740F12026A
:102283006312237CE9600302236790F107E0F50AF8
:1022930074051202637402F07407120263A882A920
:1022A300837402120263122376EE2402F8EF3400E1
:1022B300F91223707403650A600C7401650A7003D4
:1022C300120DBC120E5F120F2E7403650A600E749A
:1022D30001650A7005120D998003120EA485108200
:1022E300851183AC82AD837A0279021218FCE970FE
:1022F3004F7407120263E0547FFA74016A600F742B
:10230300036A600AE48E828F83F079058056740233
:102313008E828F83F07409120263E08E828F83A30F
:10232300A3A3A3A3A3A3A3A31226E38508828509DA
:1023330083F0740A120263E06440700E7401800C2F
:10234300E48E828F83F07901801A74038E828F83E7
:10235300A3F090F27EE004F0E070037401F07900E2
:10236300800279037414021183A882A983851082E1
:10237300851183E8F0A3E9F02274021214C7AC823A
:10238300AD837A03F91218FC2274F212026F74FB04
:102393001202188A0C8B0D750908EA240EF582EBDC
:1023A300121D77F50EEA2405F8EB3400F9740312D5
:1023B30002631223767EA77FF27508008011050859
:1023C300EE240BFEEF3400FFE508C39402504F8E5A
:1023D300828F83E0640270E6750A04750B00780A45
:1023E3001203B6EE2402FCEF3400FD7405120263FF
:1023F30012249D12022EEA7001EB70C28E828F832B
:10240300A3A3A3A3A3A3A3A3A3E0650E70B08E828B
:102413008F83E5827002E5836004E4F0F50974823A
:10242300851082851183F0E50C240DF582E50D12EC
:102433001D77C0E07401120263D0E0F0740212024F
:1024430063E509F07D037C03851082851183AA82ED
:10245300AB837902121B91A808A909E8FEE9FFE8FA
:102463007001E9602B75080475090078081203B63A
:10247300E50C2405FCE50D3400FDEE24030A0A0AED
:10248300EF1226B712022E7900EEFAEFFB121EF1BD
:10249300740512022E7F070202CF121B761226A0AA
:1024A3002274F112026F74F81202188A0A8B0B8AD3
:1024B300828B83122784C3E89409E91220544012C3
:1024C300EA2414F582EB121D776402600579020297
:1024D3001C4175080475090078081203B6EA240E36
:1024E300FCEB3400FD7406120263AA82AB8312294B
:1024F30014740212022EC082C08390F277780C12F9
:102503000123D083D082780C12010E70C0E50A2417
:1025130012F582E50B121D77F50890F2A7E064022D
:10252300702C750C04750D00780C1203B6E50A24A3
:1025330005FCE50B12269512022EEA7001EB700ED4
:1025430090F2B0E0650870067EA77FF280047E00FB
:102553007F00EE7001EF604D1226C9C0E0740112D6
:102563000263D0E01226DEC0E07402120263D0E000
:10257300F090F263E0C0E07403120263D0E012262D
:10258300F17001E9601A750C04750D00780C1203E3
:10259300B61226A612022E7900AA08AB09121EF162
:1025A30079010224D290F27BE070030224D012114D
:1025B300918A0C8B0DAE0CAF0DEE7001EF60E175DF
:1025C3000C04750D00780C1203B6E50A2405FCE52E
:1025D3000B3400FDEE24020A0AEF1226B712022E74
:1025E300EEFAEFFB79021212ADE97008E48E828FE6
:1025F30083F080AC90F27DE0640160F0E0F50C7450
:1026030001250C1226E3C0E0E50C247CF582E434BA
:10261300F2F583D0E01226BDA3A3A3A3E508F074CB
:10262300028E828F83F0E50A2413F582E50B121DD7
:1026330077644070047401800274038E828F83A3D5
:102643001226DEC0E07402120263D0E0F090F2635F
:10265300E0C0E07403120263D0E0F01226C9C0E0C8
:102663007401120263D0E01226F17001E9700302D3
:1026730025EF750C04780C1203B61226A612022E4F
:102683007900AA08AB09121EF1E960030225EF02E3
:1026930025A33400FD7AA97BF21226A02212287307
:1026A300740222E50A2405FCE50B3400FDEA240349
:1026B3000A0A0AE93400FB021D7E1226C122F08EAB
:1026C300828F83021D8E7481851082851183F0E5CC
:1026D3000A240DF582E50B121C56221226EAE0228B
:1026E3001226EAA3A3E0221226C1A3A3A322F08504
:1026F3000A82850B83A3A3A3A3A3A3A3A3A3A3E0FA
:102703005407FA7403C39AFD7C04851082851183F0
:10271300AA82AB83790212271D22121B91A909EA0F
:102723002274F812026FEAFEEBFF7D017C0090F247
:102733007E1227F57007120FAA790180418E828FCE
:10274300831227847408687001E9700FEE240CF576
:1027530082EF3400F5837401F08011EE240C121D16
:10276300741203F401017F276F277827EEFAEFFB3A
:102773001224A48007EEFAEFFB12238C7900020FD8
:1027830029E0F874F528F874FF3400F922C082C0F8
:1027930083E970047A0180027A00EA90F27BF00206
:1027A3000FBA74F712026FEAFEEBFF7D017C009013
:1027B300F27F1227F57007120FAA7901801D7508A1
:1027C3000475090078081203B61227E112022EEAF3
:1027D3007001EB7004790080027902020E49121F26
:1027E3003CEAFCEBFD8E828F83A3AA82AB83122685
:1027F300A022E0F91213C5E92274F512026FEAFE72
:10280300EBFF7D017C0090F2801227F57007120F19
:10281300AA79018055EE240C121D74640170497D60
:10282300038E828F83E024F5FCEE240CFAEF340050
:10283300FB790112271D7001E9602D750A04750BE0
:1028430000780A1203B6EE2405FCEF1226AD12023D
:102853002EE508240EF582E509121D77D2E7F079FB
:1028630000AA08AB09121EF1790002118679002231
:1028730074F812026F7408120263E0F8A3E0801583
:10288300A3AA82AB838C828D83A3AC82AD83E8241D
:10289300FF18E934FFF9E87001E960248A828B8329
:1028A300E0FE8C828D83E06E8A828B8360D2E0F8B7
:1028B3008C828D83E0FAE8C39AFAE49400FB8004E7
:1028C3007A007B007F010202CF74F712026F740952
:1028D300120263E0FEA3E0FFEAF8EBF980188C82B2
:1028E3008D83E088828983F0A3A882A9838C828D5B
:1028F30083A3AC82AD838E088F0974FF25081E74F1
:10290300FF3509FFE5087002E50970D27F02020274
:10291300CF74F712026F7409120263E0F8A3E0F9AF
:10292300EAFEEBFF8A088B09C3EA9CEB9D405EEC51
:1029330028F582ED39F583C3E5829508E58395098A
:10294300404BEA28FAEB39FBAC82AD831229A27023
:1029530002E5096041EC24FF1CED34FFFDEA24FF8E
:102963001AEB34FFFB8C828D83E08A828B83F080A9
:10297300DB8C828D83E08A828B83F08C828D83A3B0
:10298300AC82AD838A828B83A3AA82AB831229A2F2
:102993007002E50970DBEEFAEFFB7F020202CF88DB
:1029A30008890974FF25081874FF3509F9E5082219
:1029B30074F812026F7408120263E0F8A3E0F98A54
:1029C300828B838003ECF0A3E8FEE9FF74FF2E18EB
:1029D30074FF3FF9EE7001EF70EB7F010202CF0647
:1029E300060606060604070707070707040000DFB5
:1029F300BE00072042FFFFFFFFC1CBFFFF00000027
:102A030001000000000000000000000000000000C2
:102A13000000000000000000000000FC272427A69F
:102A2300217028531FA52779563412020101000093
:0C2A33007856785600000000341234126F
:04000005000000FCFB
:00000001FF
